:1000000040C45AC4F5CC58C457C456C455C454C48B
:1000100053C452C4FFC450C44FC44EC44DC4000C9A
:10002000102D00000000C0C0C0C0C00000000000D3
:1000300000000101010101000000000000000000BB
:100040000000000000000000000000003C3C3C00FC
:10005000000000000000000000C0FCFF3F030000A3
:10006000000000407C7F1F01000000000000F0FC49
:10007000FC0E0E0E1EFCF8F000000F1F1F38383863
:100080003C1F0F070000000008381C1CFEFEFE008D
:1000900000000000000000003F3F3F0000000000A3
:1000A000041C0E0E0E8EFEFCF800000000383C3ED4
:1000B0003F3F3B393838000000000C0ECECECEFE5C
:1000C000FCBC000000003838383839391F1F0F00D9
:1000D00000000080E0703CFEFEFE0000000C0F0FF0
:1000E0000F0E0E3F3F3F0E0E00000000FEFEFEDE34
:1000F000CECECE8E000000003939383839391F1F76
:100100000700000000F0FCFCCECECECECE8E00006C
:10011000000F1F3F3838383F1F0F0000000E0E0E33
:100120000ECEFEFE7E1E0000000020383E3F0F0176
:100130000000000000000078FCFECECECEFEFC3CAD
:100140000000001F1F3F3931393B1F1F0600000010
:10015000F8FCFE8E8E8EFEFCF8000000383939392E
:10016000393D1F1F070000000000000000000000D4
:10017000000000000000000000000000000000007F
:100180000000003C7E66667E3C000000000000002F
:1001900000000000000000000000F0F8FC1C0E0E43
:1001A0000E0E0E040000070F1F3C38383838381088
:1001B0000000000810200000000000000000000007
:1001C000000000000000000000F800000000000037
:1001D00000333000000000100C06100C0600000078
:1001E00000000000000040C07840C0784000043F9C
:1001F00004043F040400007088FC0830000000186C
:1002000020FF211E0000F008F000E018000000218F
:100210001C031E211E0000F00888700000001E2133
:1002200023241927211010160E00000000000000E2
:10023000000000000000000000E0180402000000C0
:1002400000071820400000020418E00000000040F1
:10025000201807000000404080F08040400002026B
:10026000010F01020200000000F000000000010187
:10027000011F01010100000000000000000080B02B
:1002800070000000000000000000000000000001FD
:100290000101010101010000000000000000003028
:1002A00030000000000000000000806018040060C2
:1002B00018060100000000E010080810E000000F20
:1002C000102020100F00001010F800000000002087
:1002D000203F2020000000700808088870000030CF
:1002E0002824222130000030088888483000001877
:1002F000202020110E000000C02010F80000000790
:100300000424243F240000F8088888080800001905
:10031000212020110E0000E0108888180000000F36
:10032000112020110E0000380808C838080000000D
:10033000003F000000000070880808887000001C62
:10034000222121221C0000E010080810E00000001B
:10035000312222110F00000000C0C0000000000088
:1003600000303000000000708888887000000000B5
:10037000000000000000F0F81C0C0C0C18300F1FDF
:1003800038303030180840404040404040000404BD
:100390000404040404000008102040800000002031
:1003A000100804020100007048080808F00000006E
:1003B000003036010000C030C828E810E0000718FF
:1003C000272423140B000000C038E0000000203C6C
:1003D00023020227382008F8888888700000203F10
:1003E000202020110E00C030080808083800071827
:1003F00020202010080008F808080810E000203F1E
:10040000202020100F0008F88888E8081000203FFE
:1004100020202320180008F88888E8081000203FD2
:10042000200003000000C03008080838000007184A
:100430002020221E020008F808000008F808203FCB
:10044000210101213F20000808F8080800000020D1
:10045000203F2020000000000808F8080800C080A5
:1004600080807F00000008F888C028180800203F1E
:1004700020012638200008F8080000000000203F76
:1004800020202020300008F8F800F8F80800203F6D
:10049000003F003F200008F830C00008F808203F67
:1004A000200007183F00E01008080810E0000F10B7
:1004B000202020100F0008F808080808F000203F4E
:1004C000210101010000E01008080810E0000F18E9
:1004D000242438504F0008F8888888887000203F0E
:1004E0002000030C3020007088080808380000380D
:1004F000202121221C00180808F808081800000014
:10050000203F2000000008F808000008F808001F3D
:10051000202020201F000878880000C8380800002C
:1005200007380E010000F80800F80008F800033C46
:100530000700073C0300081868808068180820300E
:100540002C03032C30200838C800C83808000000ED
:10055000203F2000000010080808C8380800203894
:10056000262120201800000000FE020202000000E8
:10057000007F40404000000C30C000000000000040
:1005800000010638C00000020202FE000000004028
:1005900040407F000000000004020202040000004E
:1005A000000000000000000000000000000080804B
:1005B0008080808080800002020400000000000033
:1005C0000000000000000000808080800000001912
:1005D000242222223F2008F8008080000000003FF3
:1005E000112020110E000000008080800000000E0D
:1005F000112020201100000000808088F800000EEB
:10060000112020103F200000808080800000001F0B
:10061000222222221300008080F08888881800207F
:10062000203F202000000000808080808000006B40
:1006300094949493600008F8008080800000203F2C
:10064000210000203F20008098980000000000203A
:10065000203F20200000000000809898000000C08B
:100660008080807F000008F8000080808000203FAC
:1006700024022D302000000808F8000000000020AF
:10068000203F202000008080808080808000203FEC
:1006900020003F20003F8080008080800000203FBD
:1006A000210000203F200000808080800000001F8B
:1006B000202020201F00808000808000000080FF1C
:1006C000A12020110E000000008080808000000E1C
:1006D000112020A0FF80808080008080800020206A
:1006E0003F212000010000008080808080000033D6
:1006F000242424241900008080E080800000000071
:10070000001F202000008080000000808000001F6B
:10071000202020103F208080800000808080000109
:100720000E300806010080800080008080800F303D
:100730000C030C300F0000808000808080000020BF
:10074000312E0E31200080808000008080808081EA
:100750008E7018060100008080808080800000215B
:10076000302C2221300000000000807C02020000BA
:100770000000003F404000000000FF0000000000BB
:100780000000FF0000000002027C8000000000402A
:10079000403F0000000000060101020204040000C6
:1007A0000000000000001720000000000000C0F062
:1007B000F8FEFFFCF0C00000000000000000000098
:1007C00000E0F8FEFFFFFFFFFFFFFFFFFFFFFEFC63
:1007D000F8F0E080000078FFFF077FFFFFFFFFFFDA
:1007E000FFFFFFFFFFFFFFFFFFFFFFFF7800030F8B
:1007F0001E3830716363E7FFFFFFFF7F7F7F3F1F7E
:100800001F0F03000A200000F0CCC2C2CCF0202051
:100810000000FFFFFFFFFFFF49490080FFFFFFFFD0
:10082000FFFF92121E7F7FFFFFFFFF7F7F1E0A20C8
:100830000000F00C02020CF020200000FF0000007D
:1008400000FF49490080FFFCFCFCFCFF92121E7F68
:100850007FFFFFFFFF7F7F1E0A200000F00C0202D7
:100860000CF020200000FF00000000FF494900803C
:10087000FF00000000FF92121E61408080808040D7
:10088000611E11241FBECFE5D2E0DEBFCDBF10E058
:10089000A0E6B0E0EEEFFDE102C005900D92A23DB2
:1008A000B107D9F721E0A2EDB0E001C01D92AE3250
:1008B000B207E1F7E9D9A1CAA3CB1F93CF93DF9386
:1008C000EC01162F45E050E06FEF70E059DA87B386
:1008D00041E050E002C0440F551F1A95E2F7842B07
:1008E00087BB88B3942F9095892388BBE0EAFCE806
:1008F0003197F1F788B3842B88BB85E38A95F1F7AC
:1009000087B3892387BB88B3842B88BB28E503C0C2
:10091000215009F44DC086B390E084239523892BA0
:10092000B9F328E503C0215009F442C086B390E032
:1009300084239523892BB9F788E210E060E0E0E09A
:1009400077E0F0E598E302C0915049F126B330E03A
:1009500024233523232BC1F390E502C09150F9F0F5
:1009600026B330E024233523232BC1F7660F2F2F26
:10097000291B283208F06160711116C09E012E0FEC
:10098000311DD9016C93E43088F0EF5F60E077E0CF
:100990008150C1F69C81911719F08DEF01C08EEF47
:1009A000DF91CF911F9108957150F2CF160FEDCFC7
:1009B0008FEFDF91CF911F910895A5E0B0E0E2EEB7
:1009C000F4E0AEC9682F20ED37E048EC50E0FA01C2
:1009D0003197F1F721503109D1F7CE0101966DDF42
:1009E0002596E2E0B9C9F8948CB58E7F8CBD8CB5A4
:1009F00080688CBD1ABC12BE83E083BF8CE789BDC2
:100A00008AB582608ABD89B7806189BF8CB58F77CE
:100A10008CBD08951F921FB61F9211248F939F9330
:100A2000AF93BF938091D2009091D300A091D40056
:100A3000B091D5000196A11DB11D8093D200909375
:100A4000D300A093D400B093D500BF91AF919F91F4
:100A50008F911F901FBE1F901895A4E0B0E0E2E3B5
:100A6000F5E05EC98091D2009091D300A091D400AE
:100A7000B091D500BC01CD012496E2E06DC9909300
:100A8000DC008093DB007093DA006093D900509310
:100A9000D8004093D7002093D60080E00895CF93EC
:100AA000DF935FB7A091DB00B091DC009C91809157
:100AB000D600982B9C93E091D900F091DA009081B8
:100AC000982B90839C91482F409594239C9320EBE6
:100AD00034E0E9012197F1F79081942390839AEB18
:100AE0009A95F1F7C091D700D091D8004881C0E91C
:100AF000D1E02197F1F79C91982B9C939081982BB2
:100B00009083F9013197F1F75FBF982F942381E02B
:100B100009F480E0DF91CF910895282F3FB7E0914D
:100B2000DB00F091DC0080819091D600892B8083DE
:100B3000A091D900B091DA008C91892B8C934081DF
:100B4000892F809584238083222379F085E18A95FB
:100B5000F1F78081982B908385ED8A95F1F73FBF5F
:100B600081E0211101C080E0089585ED8A95F1F7BB
:100B70008081982B908385E08A95F1F7F0CFFF92E2
:100B80000F931F93CF93DF93D82FFFB608E010E0A9
:100B9000C1E08D2F8C23C1DFCC0F01501109C9F7A3
:100BA000FFBECDB7DEB7E5E0D4C83FB7A091DB000C
:100BB000B091DC009C918091D600982B9C93E091A1
:100BC000D900F091DA009081982B90839C91282F86
:100BD000209592239C9395E09A95F1F7908192232A
:100BE00090839DE09A95F1F7E091D700F091D800BD
:100BF000208190EA9A95F1F73FBF982F922381E0E8
:100C000009F480E00895FF920F931F93CF93DF9331
:100C1000FFB608E010E0C1E0D0E0C7DF6C2F70E065
:100C200090E036D8D82BCC0F01501109B1F7FFBE98
:100C30008D2FCDB7DEB7E5E08CC8E091D700F091FD
:100C4000D80080819091D600892311F40000F5CF5F
:100C50000895C09AC29ABA9AB89A8FEF8FB98AE269
:100C60008DB980EF8EB908958091DD0008958EB919
:100C70003DE09BE22AE0832F8A95F1F79DB9B29B74
:100C8000FECF822F8A95F1F79DB9769BF4CF8DE048
:100C90008A95F1F78FB19FEF9FB9B89A0895C29ADC
:100CA000C29BFECF8DE08A95F1F7C0988AE08A95C5
:100CB000F1F7C298C09A779B02C081E0089583E063
:100CC0008093DD0080E00895C098C29AB29BFECF69
:100CD0008AE08A95F1F7C09A8DE08A95F1F79EB186
:100CE000892F807295FF02C081E0089594E090936F
:100CF000DD000895B0E0A0E0EFE7F6E007C86C0182
:100D0000D62F8091DD0081608093DD00F601908117
:100D100090FD03C082608093DD00C1DF8823D1F1A4
:100D2000CD2F8601BB24BA94AA24A394460117C0F0
:100D3000C298F80180818FB980EF99DFB8988EEF63
:100D400096DF80FD3AC08091DD00982F9570943039
:100D500041F18E7F8093DD008701C150A9F07801B9
:100D6000FFEFEF1AFF0A8091DD00837009F7B89852
:100D700080EF7DDFF8018083C13089F01FB88EEFEE
:100D800076DF8701C15059F79FDF982F81E09111DD
:100D900001C080E0CDB7DEB7ECE0D4C729C0BFB852
:100DA000EECFF601808181608083A092DD0077DF45
:100DB0008823D1F0CD2F8401D0CF9091DD00892FF1
:100DC000817090FF09C081E08093DD0080E0CDB7A5
:100DD000DEB7ECE0B7C70CC092E09093DD00CDB772
:100DE000DEB7ECE0AFC704C09AE09093DD00D2CF4D
:100DF0001092DD007FCFEF92FF920F931F93CF935E
:100E0000DF938C014CDE813009F44EC08091DE000E
:100E10009091DF00892B09F44CC085E5B0DED0E06D
:100E2000C0E0E091DE00F091DF00EC0FFD1F80815B
:100E3000A6DE2196C830D105A1F78EEBA0DE7801A1
:100E400089E0E80EF11CE801DEDE8993CE15DF05AE
:100E5000D9F7F80180819181982B2281922B2381EF
:100E6000922B2481922B2581922B2681922B2781F4
:100E7000922B29F13196B801685F7F4F90E04CE8E2
:100E800028E0392F3827969530FD942786952150F4
:100E9000C1F76E177F0711F08191F2CF81E0F80161
:100EA0002085291749F0880FCDB7DEB7E6E050C797
:100EB0000BC08CEC64DEC1CF80E0880FF5CF83E0FF
:100EC000CDB7DEB7E6E044C7A9E0B0E0E9E6F7E079
:100ED00023C77C01E4DD813009F452C08091DE003B
:100EE0009091DF00892B09F458C085E548DE10E0B9
:100EF00000E0E091DE00F091DF00E00FF11F808163
:100F00003EDE0F5F1F4F0830110599F784E437DE8E
:100F100094DECE0101966FDF811136C049812A81AE
:100F200030E0322F2227240F311D37FF02C0215F0E
:100F30003F4F3595279535952795359527953595C7
:100F40002795F701318320834F7050E09A01220FDB
:100F5000331F22953295307F3227207F3227241B82
:100F6000350B220F331F220F331F240F351FA9010A
:100F7000440F551F440F551F240F351F3383228301
:100F80002996E6E0E5C60CC0F701108211821282B4
:100F900013822996E6E0DCC603C08CECF0DDB6CF08
:100FA000AF92CF92EF920F931F93CF93DF93CDB772
:100FB000DEB729970FB6F894DEBF0FBECDBF5FDD59
:100FC0000093DE001093DF006ADD813001F1809133
:100FD000DE009091DF00892B09F450C085E5CFDD5C
:100FE00010E000E0E091DE00F091DF00E00FF11F83
:100FF0008081C5DD0F5F1F4F0830110599F78EE422
:10100000BEDD8E2DBCDD8C2DBADD8A2DB8DD47DD31
:101010008130E9F08091DE009091DF00892B29F189
:1010200085E5ADDD10E000E0E091DE00F091DF004D
:10103000E00FF11F8081A3DD0F5F1F4F0830110506
:1010400099F784E49CDDF9DDCE010196D4DE299682
:101050000FB6F894DEBF0FBECDBFDF91CF911F91C9
:101060000F91EF90CF90AF9008958CEC88DD84E4E1
:1010700086DDE3DDCE010196BEDEE9CF8CEC7FDDBF
:101080008EE47DDD8E2D7BDD8C2D79DD8A2D77DD67
:10109000BECFAF92BF92CF92DF92EF92FF921F939B
:1010A000CF93DF936C017B01672B09F1D0E0C0E0A7
:1010B00083E1A82EB12C06C0812FDDD22196EC163B
:1010C000FD06A9F0F601EC0FFD1F1491CE01B5014C
:1010D000F0D5892B89F7DBD28091E700C6D280E476
:1010E000CAD2812FC8D22196EC16FD0659F7CFD26D
:1010F000DF91CF911F91FF90EF90DF90CF90BF9045
:10110000AF900895CF92DF92FF920F931F93CF93EA
:10111000DF939C01EB01F52E8B01C901642F7F2D1C
:10112000DCD569019B01F8010F5F1F4F805A9F4F6B
:10113000DC0193968C918083672B79F7D7FE06C0EC
:10114000CF0102962DE2F80120838C01D8011C9278
:10115000CE17DF0750F48081319798819183DE01AB
:1011600021968C93CE17DF07B0F3DF91CF911F91BB
:101170000F91FF90DF90CF9008959C01049690937B
:10118000E6008093E500F901319684918093E000B8
:10119000319664916093E1002D5F3F4FF9012491F6
:1011A0002093E200982F962B977021E030E011F405
:1011B00030E020E070E090E06BD5959587959595AF
:1011C000879595958795280F391F3093E4002093D4
:1011D000E30008958091E70048D280E84CD28EEA7F
:1011E0004AD255C28091E70040D280E844D28FEACB
:1011F00042D24DC20F931F93CF93DF93082F162F28
:10120000D42FC22F30D28091E7002FD280E833D282
:1012100081E231D280E02FD2802F2DD2D1508D2F7C
:10122000800F29D234D21FD28091E7001ED280E8ED
:1012300022D282E220D280E01ED2812F1CD28FEFF8
:101240008C0F810F18D223D2DF91CF911F910F9174
:1012500008950F931F93CF938091E70006D280E803
:101260000AD280E008D213D28091E700FED180E854
:1012700002D280E100D20BD28091E700F6D180E863
:10128000FAD180E4F8D103D224E040E860E080E0C5
:10129000B1DF01E210E08091E700E7D180E4EBD11B
:1012A000C0E180E0E8D1C150E1F7F1D1015011096E
:1012B00091F7CF911F910F9108958093E700D3D1BB
:1012C00080E197E20197F1F78091E700CED180E8C5
:1012D000D2D18EEAD0D1DBD18091E700C6D180E8AF
:1012E000CAD188EAC8D180E8C6D18FE1C4D1CFD1B4
:1012F0008091E700BAD180E8BED183EDBCD180E80F
:10130000BAD180E0B8D1C3D18091E700AED180E8F6
:10131000B2D180E2B0D180E8AED180E0ACD1B7D11B
:101320008091E700A2D180E8A6D180EBA4D1AFD113
:101330008091E7009AD180E89ED180E09CD1A7D12E
:101340008091E70092D180E896D180E194D19FD13D
:101350008091E7008AD180E88ED180E48CD197D14A
:101360008091E70082D180E886D181E884D180E84D
:1013700082D180E880D18BD18091E70076D180E85E
:101380007AD181EA78D183D18091E7006ED180E86B
:1013900072D188EC70D17BD18091E70066D180E872
:1013A0006AD186EA68D173D18091E7005ED180E886
:1013B00062D185ED60D180E85ED180E85CD167D1F3
:1013C0008091E70052D180E856D189ED54D180E870
:1013D00052D181EF50D15BD18091E70046D180E8B6
:1013E0004AD18AED48D180E846D182E044D14FD13C
:1013F0008091E7003AD180E83ED18BED3CD180E886
:101400003AD180E338D143D18091E7002ED180E8F2
:1014100032D18EE230D13BD18091E70026D180E8F5
:101420002AD18DE828D180E826D184E124D12FD19A
:1014300010DF8091E70019D180E81DD18FEA1BD120
:1014400026C18091E00090E00895B0E0A0E0EAE2DB
:10145000FAE060C4182F062F7A01CA01AAD4C090FE
:10146000E000D090E100D694D694D69406950695E7
:101470000695882349F1E70197012F5F3F4F81507F
:101480007901E80EF11C2D2D4C2D602F812FB2DE3D
:101490008991E091E300F091E400082E000C990B93
:1014A0002091E200821B9109BF01F2D34091E50037
:1014B0005091E600BF01840F951FEBDD8091E000A5
:1014C000180FCE15DF05F9F6CDB7DEB7E8E03EC45C
:1014D000A0E1B0E0EDE6FAE021C4182F062FCA0122
:1014E0004AE050E0BE016F5F7F4F0CDEAE014F5F00
:1014F0005F4F602F812FA9DF6096E4E02BC4A0E24C
:10150000B0E0E4E8FAE006C4182FD62EC42EF52E7B
:101510001A821982FE0133968EE0DF011D928A95B0
:10152000E9F71A8E198E86E07896DF01982F1D92C2
:101530009A95E9F71A8A198A3897DF011D928A95D8
:10154000E9F74AE050E0BE016F5F7F4FC901DADD85
:1015500068EA70E0CE0101961AD44AE050E0BE017C
:10156000675E7F4F8C2D9F2DCDDD67E070E0CE0153
:10157000499638D4801728F494E0492F481B9813D3
:1015800040C0402F50E0BE01675E7F4FCE01019604
:1015900019D46FE070E0CE01019624D49C018E1521
:1015A00048F0AE014F5F5F4F6D2D812F4EDFA0964B
:1015B000E8E0CCC333278E2D803108F5E82EF12CDE
:1015C000A701421B530B8FE090E0821B930B41500D
:1015D0005109841795078CF060E270E081E090E09B
:1015E0008C0F9D1F820F931FCBD3E1E0F0E0EC0F37
:1015F000FD1FEE0DFF1D1082D4CFAC01EDCF8FE0AB
:10160000DDCF50E06AEA70E0CE014196B0D3BE0172
:10161000675E7F4FCE014196BAD3BE016F5E7F4FAA
:10162000CE014996BFD3ADCF0F931F93CF93DF93D6
:101630008C01862F642FF801D4913196C491C69500
:10164000C695C6952C2F4D2FD5DD6C2F70E08D2FB4
:1016500090E01ED3BC01C80102961BDDDF91CF9143
:101660001F910F910895F5CA08951092E800880F10
:101670008093E9000895E091E800E43138F4EF5FE9
:10168000E093E800F0E0E751FF4F80830895609118
:10169000E8006F5F89EE90E0ABDB1092E8008823F2
:1016A00011F080E00895E0CAEF920F931F93CF935B
:1016B000C82F40912A0150912B0160912C0170910B
:1016C0002D0180911A0190911B01A0911C01B091F4
:1016D0001D0184179507A607B707E8F0C1111BC0C5
:1016E00080910E0100910A0110910B0120910C01D3
:1016F00030910D01882309F46CC0813009F474C065
:10170000401751076207730708F0BCC0CF911F91C3
:101710000F91EF90089544525A4F6F4F7F4F40936F
:101720001A0150931B0160931C0170931D0163E02B
:101730008FE091E0C2D88093190181112EC02091D1
:101740001101309112018091160190911701281713
:10175000390709F072C0CC2309F48CC080911101C3
:10176000282F30E080911201482F50E085E0E82ECC
:1017700001E060E084E4C3DE45EB50E060E08CE62D
:1017800064DE48EB50E060E184E45FDE40910F01ED
:1017900050E060E184E49CDE0AC04CEA50E060E086
:1017A00084E453DE4CEA50E060E184E44EDE85E000
:1017B000EFE0F1E0A4E1B1E001900D928A95E1F74C
:1017C00040912A0150912B0160912C0170912D01C3
:1017D00087CF401751076207730708F497CF40E09F
:1017E00060E088E598E00AC0401751076207730778
:1017F00008F48CCF40E060E08EE298E015DF809145
:101800002A0190912B01A0912C01B0912D018851BA
:101810009C4FAF4FBF4F80930A0190930B01A09351
:101820000C01B0930D0180910E018F5F80930E012A
:10183000CF911F910F91EF90089580911101282F62
:1018400030E080911201482F50E095E0E92E01E050
:1018500060E084E454DE45EB50E060E08CE6F5DDCA
:1018600090910F018091140198138BCFCC2309F430
:101870009ECF87CF90910F0180911401981709F4A2
:1018800096CF7FCF40E060E084E098E0CDDE8091AD
:101890002A0190912B01A0912C01B0912D0188512A
:1018A0009C4FAF4FBF4F80930A0190930B01A093C1
:1018B0000C01B0930D0110920E01CF911F910F9169
:1018C000EF90089582EB91E058DCC3DC40E060E0EB
:1018D00088E598E0A9DE40EC50E060E084E1B5DD09
:1018E00049EC50E060E184E1B0DD81E0DDCEEF92D3
:1018F0000F931F93CF93C82F40912A0150912B0132
:1019000060912C0170912D01009106011091070149
:1019100020910801309109010417150726073707A0
:1019200018F0882309F44AC046505F4F6F4F7F4F2D
:1019300040930601509307016093080170930901D9
:101940008DEF90E0C1DA8093050181113CC0409198
:101950000101509102016091030170910401809195
:10196000FD009091FE00A091FF00B091000148178A
:1019700059076A077B0711F4CC2301F12091FD0080
:101980003091FE004091FF00509100012093010131
:1019900030930201409303015093040185E0E82E47
:1019A00001E068E088E2ABDD4CDD982F990F990FDC
:1019B000890F45EB50E068E0885D47DDCF911F91CE
:1019C0000F91EF9008954CEA50E068E088E23DDD29
:1019D000CF911F910F91EF9008958EE190E0CDDBB4
:1019E00038DC40E060E086EA97E01EDE81E07FCFF1
:1019F0001F920F920FB60F9211242F933F934F9384
:101A00005F936F937F938F939F93AF93BF93EF9366
:101A1000FF9323D8462F572FBC01409325015093A5
:101A200026016093270170932801FF91EF91BF91E8
:101A3000AF919F918F917F916F915F914F913F9166
:101A40002F910F900FBE0F901F9018950F931F931B
:101A5000CF9303D8462F572FBC0140932A015093B0
:101A60002B0160932C0170932D01C6B3C695C170F4
:101A700080912301C81709F43DC040931F01509382
:101A80002001609321017093220180912401C09371
:101A90002301813009F491C0823009F49BC0009188
:101AA00025011091260120912701309128014091B4
:101AB0002A0150912B0160912C0170912D01401B46
:101AC000510B620B730B882309F44FC041365A4EF9
:101AD0006105710508F076C085B7877E85BF85B73B
:101AE000806285BF889585B78F7D85BFCF911F9117
:101AF0000F91089580911F0190912001A0912101E3
:101B0000B09122018A019B01081B190B2A0B3B0B88
:101B100080912401E82F033311052105310508F4D4
:101B2000B6CF90912901C9132BC0CC2309F4AFCFB4
:101B300090911E019111ABCF083E13402105310554
:101B400008F4A5CF91E090931E01811165C0909398
:101B500023018091250190912601A0912701B09148
:101B60002801481B590B6A0B7B0B4938534161050F
:101B7000710508F4B1CF85B7877E806185BFAFCF8F
:101B8000C0932901409325015093260160932701BA
:101B900070932801C11109C0083E13402105310589
:101BA00020F490911E019923D1F010921E018E2FE6
:101BB000C0932301813009F06FCF80E075DD809103
:101BC00024016DCF1092240105DB85B7877E8061EB
:101BD00085BF85CF80E08BDE8091240160CF882394
:101BE00081F091E0980F823099F090932401923027
:101BF00021F068DEE0912401D8CFEFDEE0912401EE
:101C0000D4CF81E080932401EDDA90912401EFCFCD
:101C100081E080932401EDCF10922401DBDA8091E2
:101C2000240135CFAF92CF92EF920F931F93B998C3
:101C3000C198D9D68CE341DB82EB91E09EDA83E058
:101C4000BCD680E4A82EC12C94E6E92E10E000E07A
:101C500020E146E350E067E370E088E390E0A0D93C
:101C600080E888B989E080BDA89514BE81B58861F7
:101C700081BD11BC80E28BBFA99A78941F910F910E
:101C8000EF90CF90AF900895CDDFE0DEDFDEFDCFA7
:101C90000024552704C0080E591F880F991F00976C
:101CA00029F076956795B8F37105B9F7802D952FD2
:101CB0000895AA1BBB1B51E107C0AA1FBB1FA61793
:101CC000B70710F0A61BB70B881F991F5A95A9F7E5
:101CD00080959095BC01CD01089597FB072E16F4D1
:101CE000009406D077FD08D0E4DF07FC05D03EF471
:101CF000909581959F4F0895709561957F4F0895B8
:101D00002F923F924F925F926F927F928F929F920B
:101D1000AF92BF92CF92DF92EF92FF920F931F93F9
:101D2000CF93DF93CDB7DEB7CA1BDB0B0FB6F894AA
:101D3000DEBF0FBECDBF09942A88398848885F84EA
:101D40006E847D848C849B84AA84B984C884DF805B
:101D5000EE80FD800C811B81AA81B981CE0FD11D3F
:101D60000FB6F894DEBF0FBECDBFED010895FB01A5
:101D7000DC0102C001900D9241505040D8F7089507
:101D8000DC0101C06D9341505040E0F70895FB0124
:101D9000DC010D900020E9F7119701900D920020D1
:101DA000E1F70895FB01DC0101900D920020E1F7BD
:101DB0000895FC0101900020E9F7809590958E0F21
:101DC0009F1F0895FB01DC010D900020E9F711979A
:101DD0004150504028F0019000200D92C9F708951D
:101DE0001C920895FC016150704001900110D8F7D9
:0E1DF000809590958E0F9F1F0895F894FFCF59
:101DFE007A797877767574737271706F6E6D6C6BAD
:101E0E006A69686766656463626139383736353486
:101E1E0033323130313233343536373839616263EB
:101E2E006465666768696A6B6C6D6E6F70717273EC
:101E3E007475767778797A002E0030002D3A3A3A1A
:101E4E003A3A3A3A003B3C00202020202020250040
:101E5E0054656D703A20202D0048756D2E3A202065
:021E6E002D0045
:00000001FF
