:10000000E3C4FDC4C0CCFBC4FAC4F9C4F8C4F7C44B
:10001000F6C4F5C4A4C5F3C4F2C4F1C4F0C4000C22
:1000200010200000000000000000000000000000A0
:1000300000000000000000000000000000000000C0
:1000400000000000000000000000000000000000B0
:1000500000000000000000000000000000000000A0
:100060000000000000000000000000000000000090
:100070000000000000000000000000000000000080
:100080000000000000000000000000000000000070
:100090000000000000000000000000000000000060
:1000A0000000000000000000000000000000000050
:1000B0000000000000000000000000000000000040
:1000C0000000000000000000000000000000000030
:1000D0000000000000000000000000000000000020
:1000E0000000000000000000000000000000000010
:1000F0000000000000000000000000000000000000
:1001000000000000000000000000000000000000EF
:1001100000000000000000000000000000000000DF
:1001200000000000000000000000000000000000CF
:1001300000000000000000000000000000000000BF
:1001400000000000000000000000000000000000AF
:10015000000000000000000000000000000000009F
:100160000000000000000000000000C0C0C0C0C0CF
:10017000000000000000000101010101000000007A
:10018000000000000000000000000000000000006F
:10019000003C3C3C00000000000000000000C0FCEF
:1001A000FF3F030000000000407C7F1F01000000B3
:1001B000000000F0FCFC0E0E0E1EFCF8F000000F1C
:1001C0001F1F3838383C1F0F070000000008381C7C
:1001D0001CFEFEFE0000000000000000003F3F3F4C
:1001E0000000000000041C0E0E0E8EFEFCF8000045
:1001F0000000383C3E3F3F3B393838000000000CDF
:100200000ECECECEFEFCBC000000003838383839A7
:10021000391F1F0F0000000080E0703CFEFEFE0052
:1002200000000C0F0F0F0E0E3F3F3F0E0E000000A0
:1002300000FEFEFEDECECECE8E0000000039393844
:100240003839391F1F0700000000F0FCFCCECECE6D
:10025000CECE8E0000000F1F3F3838383F1F0F00F2
:1002600000000E0E0E0ECEFEFE7E1E0000000020D0
:10027000383E3F0F010000000000000078FCFECE79
:10028000CECEFEFC3C0000001F1F3F3931393B1F22
:100290001F06000000F8FCFE8E8E8EFEFCF80000AB
:1002A0000038393939393D1F1F07000000000000B0
:1002B000000000000000000000000000000000003E
:1002C00000000000000000003C7E66667E3C0000EE
:1002D000000000000000000000000000000000F02E
:1002E000F8FC1C0E0E0E0E0E040000070F1F3C380B
:1002F00038383838100000000810200000000000D6
:100300000000000000000000000000000000F800F5
:10031000000000000000333000000000100C061048
:100320000C0600000000000000000040C07840C043
:10033000784000043F04043F040400007088FC0877
:10034000300000001820FF211E0000F008F000E03F
:1003500018000000211C031E211E0000F0088870F8
:100360000000001E2123241927211010160E000062
:100370000000000000000000000000000000E01885
:10038000040200000000071820400000020418E0EA
:100390000000000040201807000000404080F0806E
:1003A0004040000202010F01020200000000F000C4
:1003B0000000000101011F01010100000000000018
:1003C00000000080B070000000000000000000008D
:1003D0000000000001010101010101000000000016
:1003E000000000003030000000000000000000802D
:1003F000601804006018060100000000E010080802
:1004000010E000000F102020100F00001010F80066
:100410000000000020203F20200000007008080895
:10042000887000003028242221300000300888889D
:100430004830000018202020110E000000C02010BD
:10044000F8000000070424243F240000F8088888EE
:100450000808000019212020110E0000E0108888F3
:10046000180000000F112020110E0000380808C8E5
:100470003808000000003F000000000070880808F5
:10048000887000001C222121221C0000E0100808B6
:1004900010E0000000312222110F00000000C0C057
:1004A00000000000000030300000000070888888E4
:1004B0007000000000000000000000F0F81C0C0CB0
:1004C0000C18300F1F383030301808404040404082
:1004D0004040000404040404040400000810204008
:1004E0008000000020100804020100007048080885
:1004F00008F0000000003036010000C030C828E8D5
:1005000010E0000718272423140B000000C038E077
:10051000000000203C23020227382008F888888841
:10052000700000203F202020110E00C03008080875
:10053000083800071820202010080008F8080808CC
:1005400010E000203F202020100F0008F88888E8E5
:10055000081000203F20202320180008F88888E891
:10056000081000203F200003000000C030080808E9
:1005700038000007182020221E020008F80800009A
:1005800008F808203F210101213F20000808F80851
:100590000800000020203F2020000000000808F88C
:1005A000080800C08080807F00000008F888C0280C
:1005B000180800203F20012638200008F808000015
:1005C000000000203F20202020300008F8F800F82C
:1005D000F80800203F003F003F200008F830C0002E
:1005E00008F808203F200007183F00E0100808081E
:1005F00010E0000F10202020100F0008F808080855
:1006000008F000203F210101010000E01008080867
:1006100010E0000F18242438504F0008F88888880C
:10062000887000203F2000030C30200070880808EC
:100630000838000038202121221C00180808F8087A
:100640000818000000203F2000000008F808000003
:1006500008F808001F202020201F000878880000CC
:10066000C83808000007380E010000F80800F8003C
:1006700008F800033C0700073C0300081868808066
:1006800068180820302C03032C30200838C800C814
:100690003808000000203F2000000010080808C8AB
:1006A0003808002038262120201800000000FE0213
:1006B0000202000000007F40404000000C30C000FB
:1006C000000000000000010638C00000020202FE27
:1006D000000000004040407F0000000000040202D3
:1006E0000204000000000000000000000000000004
:1006F00000000080808080808080800002020400F2
:100700000000000000000000000000000080808069
:100710008000000019242222223F2008F800808057
:10072000000000003F112020110E0000000080801A
:10073000800000000E1120202011000000008080A9
:1007400088F800000E112020103F200000808080DB
:10075000800000001F222222221300008080F088E7
:100760008888180020203F20200000000080808022
:10077000808000006B94949493600008F80080805F
:10078000800000203F210000203F2000809898003A
:100790000000000020203F20200000000000809882
:1007A00098000000C08080807F000008F800008072
:1007B000808000203F24022D302000000808F8002F
:1007C0000000000020203F202000008080808080EA
:1007D000808000203F20003F20003F8080008080FC
:1007E000800000203F210000203F2000008080800A
:1007F000800000001F202020201F008080008080BB
:1008000000000080FFA12020110E00000000808069
:10081000808000000E112020A0FF8080808000805A
:1008200080800020203F2120000100000080808087
:100830008080000033242424241900008080E0807C
:100840008000000000001F202000008080000000C9
:10085000808000001F202020103F2080808000002A
:1008600080808000010E300806010080800080003A
:100870008080800F300C030C300F000080800080DF
:100880008080000020312E0E31200080808000000A
:1008900080808080818E70180601000080808080BA
:1008A0008080000021302C222130000000000080D8
:1008B0007C020200000000003F404000000000FFFA
:1008C00000000000000000FF0000000002027C8029
:1008D0000000000040403F0000000000060101024F
:1008E00002040400000000000000001720000000C7
:1008F000000000C0F0F8FEFFFCF0C00000000000A7
:10090000000000000000E0F8FEFFFFFFFFFFFFFF18
:10091000FFFFFFFEFCF8F0E080000078FFFF077F9C
:10092000FFFFFFFFFFFFFFFFFFFFFFFFFFFFFFFFD7
:10093000FF7800030F1E3830716363E7FFFFFFFF8E
:100940007F7F7F3F1F1F0F03000A200000F0CCC2F3
:10095000C2CCF020200000FFFFFFFFFFFF4949004D
:1009600080FFFFFFFFFFFF92121E7F7FFFFFFFFF51
:100970007F7F1E0A200000F00C02020CF0202000F5
:1009800000FF00000000FF49490080FFFCFCFCFC68
:10099000FF92121E7F7FFFFFFFFF7F7F1E0A200056
:1009A00000F00C02020CF020200000FF000000000C
:1009B000FF49490080FF00000000FF92121E6140C5
:1009C0008080808040611E0011241FBECFE5D2E0F0
:1009D000DEBFCDBF10E0A0E6B0E0E4E4FDE102C080
:1009E00005900D92A03DB107D9F721E0A0EDB0E050
:1009F00001C01D92A632B207E1F703D8A1C900CB0E
:100A00009091D00041E050E002C0440F551F9A95EC
:100A1000E2F726B330E024233523232B61F4815001
:100A2000C0F780E526B330E024233523232B29F0BB
:100A30008150C0F702C08111F4CF0895A0E0B0E06A
:100A4000E3E2F5E011C98C01BB9AC39880EA9CE807
:100A50000197F1F7C39A8AE68A95F1F7BB9880E58A
:100A6000CFDF882361F17801B12CD0E090E5A92E89
:100A700087E0C82ED12CC0E080E3C2DF882321F1BB
:100A80009A2D981B21E0983208F420E00C2C01C02C
:100A9000220F0A94EAF7C22BE1E0CE1AD10860F7E0
:100AA000D43039F4F801C48380E0BC1649F08DEFEE
:100AB00007C0BC0EF701C1937F01DF5FD9CF8FEF75
:100AC000CDB7DEB7EAE0ECC88EEFFACFA5E0B0E034
:100AD000EBE6F5E0D1C88093D00088EE93E028ECF7
:100AE00030E0F9013197F1F701970097D1F7CE0186
:100AF0000196A4DF80EE9EE228EC30E0F901319708
:100B0000F1F701970097D1F72596E2E0D1C89093CD
:100B10006100809360008830910519F0C29731F42C
:100B2000FFCF84E083BF89EF89BD089583E083BF51
:100B30008CE7FACF8CB58E7F8CBD8CB580688CBD70
:100B40001ABC12BE88E090E0E2DF8AB582608ABDFE
:100B500089B7806189BF8CB58F778CBD08951F924E
:100B60001FB61F9211242F933F938F939F93AF93A0
:100B7000BF938091D1009091D200A091D300B09109
:100B8000D4002091600030916100820F931FA11D5D
:100B9000B11D8093D1009093D200A093D300B09365
:100BA000D400BF91AF919F918F913F912F911F9052
:100BB0001FBE1F901895A4E0B0E0E0EEF5E05CC821
:100BC0008091D1009091D200A091D300B091D40037
:100BD000BC01CD012496E2E06BC89093DB008093CA
:100BE000DA007093D9006093D8005093D7004093F7
:100BF000D6002093D50080E00895CF93DF935FB7B0
:100C0000A091DA00B091DB009C918091D500982BE7
:100C10009C93E091D800F091D9009081982B90831B
:100C20009C91482F409594239C9320EB34E0E9015C
:100C30002197F1F79081942390839AEB9A95F1F79D
:100C4000C091D600D091D7004881C0E9D1E021976A
:100C5000F1F79C91982B9C939081982B9083F901AC
:100C60003197F1F75FBF982F942381E0911101C074
:100C700080E0DF91CF910895282F3FB7E091DA000F
:100C8000F091DB0080819091D500892B8083A09129
:100C9000D800B091D9008C91892B8C934081892FF9
:100CA000809584238083222379F085E18A95F1F76A
:100CB0008081982B908385ED8A95F1F73FBF81E085
:100CC000211101C080E0089585ED8A95F1F78081BA
:100CD000982B908385E0F0CFFF920F931F93CF93D3
:100CE000DF93082FFFB6C8E0D0E011E0802F81230A
:100CF000C3DF110F21972097C9F7FFBECDB7DEB72D
:100D0000E5E0D3C73FB7A091DA00B091DB009C913A
:100D10008091D500982B9C93E091D800F091D90058
:100D20009081982B90839C91282F209592239C93BF
:100D300095E09A95F1F79081922390839DE09A95A2
:100D4000F1F7E091D600F091D700208190EA9A95D2
:100D5000F1F73FBF982F922381E0911101C080E00D
:100D60000895FF920F931F93CF93DF93FFB608E090
:100D700010E0D1E0C0E0C6DF6D2F70E090E0F9D662
:100D8000C82BDD0F0150110901151105A1F7FFBE98
:100D90008C2FCDB7DEB7E5E088C7E091D600F091A3
:100DA000D70080819091D50089238111089500009A
:100DB000F4CFC09AC29ABA9AB89A8FEF8FB98AE2E2
:100DC0008DB980EF8EB908958091DC0008958EB9B9
:100DD0003DE08BE22AE0932F9A95F1F78DB9B29B13
:100DE000FECF922F9A95F1F78DB9769BF4CF8DE0D7
:100DF0008A95F1F78FB19FEF9FB9B89A0895C29A7B
:100E0000C29BFECF8DE08A95F1F7C0988AE08A9563
:100E1000F1F7C298C09A779905C083E08093DC000F
:100E200080E0089581E00895C098C29AB29BFECFF9
:100E30008AE08A95F1F7C09A8DE08A95F1F78EB134
:100E40008072811104C094E09093DC00089581E0E9
:100E50000895A0E0B0E0EEE2F7E005C7EC01062F50
:100E60008091DC0081608093DC00988190FD03C05C
:100E700082608093DC00C3DF882309F1102F7E019C
:100E8000BB24B394AC2E9D2E67018FEFC81AD80AED
:100E90008091DC008370882369F1C298F70180811A
:100EA0008FB980EF94DFB8988EEF91DF80FF0BC091
:100EB0008091DC0080FF05C081E08093DC0080E051
:100EC00029C082E0FACF8091DC00982F9570943091
:100ED00051F4888181608883B092DC0090DF8111B9
:100EE00023C08AE0EACF8E7F8093DC00115011117D
:100EF00019C00BC0B89880EF6ADFF701808311300A
:100F000069F48FEF8FB98EEF62DF8EDF982F81E06B
:100F10009923A9F2CDB7DEB7EBE0C1C61FB88EEFBB
:100F200056DF11507601B0CF102FCA2CD92CDECF4E
:100F30001092DC008ECF282FE82FF92F80E04CE8AC
:100F40009E2F921B961708F00895319198E0582F24
:100F50005327869550FD8427369591509111F7CFF0
:100F6000EFCFCF93DF938091DD009091DE00892B4E
:100F700029F48CECB1DEDF91CF91089585E5ACDEEC
:100F8000C0E0D0E0E091DD00F091DE00EC0FFD1F4D
:100F90008081A2DE2196C830D105A1F7ECCFEF9277
:100FA000FF920F931F93CF93DF93EC0126DE8130E6
:100FB00051F1D7DF8EEB90DE8E017E0189E0E80EE5
:100FC000F11CCFDEF80181938F01EE15FF05C9F703
:100FD00088819981892B9A81892B9B81892B9C817E
:100FE000892B9D81892B9E81892B9F81892B882329
:100FF00071F068E0CE019FDF91E02885281301C0E1
:1010000090E0892F880FCDB7DEB7E6E04DC683E0CC
:10101000FACF1F93CF93DF93182FD62FC42FEDDD78
:10102000813051F09EDF8EE457DE812F55DE8D2F0B
:1010300053DE8C2F51DE80E0DF91CF911F91089518
:10104000ADE0B0E0E5E2F8E014C68C01CE01019617
:10105000A6DFF82E882349F0F8011082118212824F
:1010600013828F2D2D96E5E020C689819A8121E09B
:1010700097FF04C09195819591092FEFF801208386
:101080009C01990F440B550B2A873B874C875D8742
:1010900021E732E040E050E06A857B858C859D85C4
:1010A00079D520E137E240E050E0B4D56A877B870C
:1010B0008C879D87F80121832A853B853383228392
:1010C000D0CFCF93DF93D82FC92F97DD813039F060
:1010D00048DF84E401DE61DE8D2F9C2FB1DFDF91DC
:1010E000CF910895AF92CF92EF920F931F93CF932A
:1010F000DF9300D000D0CDB7DEB76FDD0093DD0009
:101100001093DE004A2D6C2D8E2D83DFCE010196CB
:10111000D8DF0F900F900F900F90DF91CF911F911C
:101120000F91EF90CF90AF900895CF93C82F8091FB
:10113000E60042D280E846D28C2F44D24FD2CF91E3
:101140000895CF93DF93D82FC62F8091E60034D235
:1011500080E838D28D2F36D280E834D28C2F32D22C
:101160003DD2DF91CF910895AF92BF92DF92EF927F
:10117000FF920F931F93CF93DF937C018B01C0E00D
:10118000D0E083E1A82EB12CC017D10759F426D2A4
:10119000DF91CF911F910F91FF90EF90DF90BF9063
:1011A000AF900895F701EC0FFD1FD490CE01B5016B
:1011B0000AD5892B31F412D28091E600FDD180E46A
:1011C00001D28D2DFFD12196DFCF1F93CF93DF93D7
:1011D000182FD62FC42FEED18091E600EDD180E8F4
:1011E000F1D1812FEFD180E0EDD18D2FEBD18C2F7C
:1011F000E9D1F4D1DF91CF911F910895EF92FF9241
:101200001F93CF93DF939C01EB01152FFB01790115
:10121000C901642F712FEBD49B01BF013196DC0112
:10122000AA59BF4F93968C91DB018C932115310500
:1012300071F7F7FE03C08DE28083319610823197FB
:10124000CE17DF0730F0DF91CF911F91FF90EF9025
:1012500008958081988190838993F1CF9C010496B1
:101260009093E5008093E400F90131968491809396
:10127000DF00319664916093E000319624912093D1
:10128000E100982F962B977021E030E0911102C079
:1012900020E030E070E090E06CD443E095958795D5
:1012A0004A95E1F7820F931F9093E3008093E20049
:1012B00008958EEA3ACF8FEA38CFCF93DF93D62FB7
:1012C000C22F4150480F682F81E27FDF4FEF4C0F54
:1012D0004D0F6D2F82E279DFDF91CF91089580E08D
:1012E00024DF80E122DF80E420CF1F93CF93DF93C0
:1012F000F6DF24E040E860E080E0DFDFC1E2D0E03C
:101300008091E60059D180E45DD110E180E05AD1AE
:1013100011501111FBCF62D12197209789F7DF91EE
:10132000CF911F9108958093E60044D180E197E228
:101330000197F1F78EEAF9DE6FE188EA02DF60E0FB
:1013400083EDFFDE60E080E2FCDE80EBEEDE80E03D
:10135000ECDE80E1EADE80E4E8DE6CE381E8F1DEE9
:1013600081EAE3DE88ECE1DE86EADFDE60E885ED37
:10137000E8DE61EF89EDE5DE62E08AEDE2DE60E362
:101380008BEDDFDE8EE2D1DE64E18DE8DADEADDF0B
:101390008FEACBCE8091DF0090E00895EFEDF0E092
:1013A00023813481082E000C990B4281841B910902
:1013B000B901DFD345815681B901840F951FD4CE81
:1013C000A0E0B0E0E5EEF9E050C4F82ED62FC42F2F
:1013D000E52E842F952F90D4D82EB090DF00C090AA
:1013E000E000C694C694C694D695D695D6950C2F93
:1013F0001E2D802F8C1B8D1520F0CDB7DEB7E9E0B8
:1014000050C42C2D4B2D6D2F8F2D57DFF80181915E
:101410008F01C4DF8091DF00F80EEBCFA0E1B0E0D8
:10142000E3E1FAE027C4182F062FCA014AE050E092
:10143000BE016F5F7F4FE2DEAE014F5F5F4F602FF7
:10144000812FBEDF6096E4E031C4A0E2B0E0EAE2C2
:10145000FAE00AC4182FF62E5A011A821982FE01E8
:1014600033968EE0DF011D928A95E9F71A8E198E68
:1014700086E07896DF01982F1D929A95E9F71A8AEF
:10148000198A3897DF011D928A95E9F72F3F11F4E9
:101490008DE289836E01B9E1CB0ED11C4AE050E0A8
:1014A000B601832F90E0AADE47E050E0B601CE01FE
:1014B00001962BD46EEA70E0CE0101960BD44AE07F
:1014C00050E0B601C5019ADE67E070E0C6012DD498
:1014D00056018017A0F494E0492F481B981779F023
:1014E00050E060E370E0CE014196EDD3B601CE014D
:1014F0004196F0D3BE016F5E7F4FC601F6D3402FF9
:1015000050E0B501CE01019600D46FE070E0CE014D
:1015100001960BD46C012E2D203108F02FE082179C
:1015200008F5C601992730E0281B390B4FE050E041
:101530005A01A81AB90A2A153B050CF45901A5014C
:10154000552760E270E021E030E02C0F3D1F820F54
:10155000931FB9D3CA0CE1E0F0E0EC0FFD1FEC0DD6
:10156000F11D1082AE014F5F5F4F6F2D812F28DF7D
:10157000A096EAE095C30F931F93CF93DF938C015E
:10158000862F642FF801D4913196C491C695C695E3
:10159000C6952C2F4D2F91DE6C2F70E08D2F90E093
:1015A000E8D2BC01C8010296DFDDDF91CF911F9127
:1015B0000F910895FECB08951092E700880F809355
:1015C000E8000895E091E700E43138F4EF5FE0933C
:1015D000E700F0E0E851FF4F808308956091E70055
:1015E0006F5F88EE90E0A4DC1092E700811101C0EB
:1015F000EBCB80E008958091630008951092630022
:1016000058CE809163008111F9CF089587EF92E061
:1016100025DE6BDE40E060E08DE999E0ACDF40EB79
:1016200050E060E084E1CCDE46EB50E060E184E134
:10163000C7DE81E08093620008958EE190E00EDEC7
:1016400054DE40E060E08BEE98E095DF81E080932F
:1016500062000895AF92CF92EF920F931F938CE3A5
:1016600062DE87EF92E0FADD809163008230C1F0A4
:10167000CDDF83E02BDA80E4A82EC12C94E6E92E9E
:1016800000E010E020E146E350E067E370E088E32B
:1016900090E028DD1F910F91EF90CF90AF900895CB
:1016A000CCDFE7CF80916300811105C081E080939A
:1016B0006300ACDF00CE8F5F80936300833021F442
:1016C00081E080936300A2CF8230E9F7B6CF8F929A
:1016D0009F92AF92BF92CF92DF92EF92FF920F93C1
:1016E0006ADA4B015C018091190190911A01A09175
:1016F0001B01B0911C0188159905AA05BB0598F13D
:1017000080916200811134C056DA6B017C01209116
:101710000D018091090190910A01A0910B01B091F6
:101720000C01222309F488C0213009F4AEC0C81688
:10173000D906EA06FB0608F49CC040E060E089E4B4
:1017400099E019DF88EEC80E83E0D81EE11CF11C79
:10175000C0920901D0920A01E0920B01F0920C01B3
:1017600010920D0186C08EE091E068D98093180137
:1017700080911801882351F14CEB50E060E084E443
:101780001FDE4091180150E060E184E447DE45E04F
:1017900050E06FEF70E08EE091E095D28CED880E16
:1017A00085E0981EA11CB11C8092190190921A012B
:1017B000A0921B01B0921C0185E0EEE0F1E0A3E1F4
:1017C000B1E001900D928A95E1F79ECF2091100132
:1017D0003091110180911501909116012817390758
:1017E00021F480916200882391F0309110013150F2
:1017F0004091110185E0E82E01E020E050E060E03A
:1018000084E423DE45EC50E060E084E6D9DD4091DD
:101810000E0180911301481305C080916200882356
:1018200009F4BCCF50E060E184E4F8DD49EC50E01D
:1018300060E184E5C5DDB2CFC816D906EA06FB062D
:10184000C0F040E060E08DE999E095DE88EEC80EDA
:1018500083E0D81EE11CF11CC0920901D0920A015C
:10186000E0920B01F0920C0180910D018F5F80934B
:101870000D01109262000F91FF90EF90DF90CF90DA
:10188000BF90AF909F908F900895C816D906EA0632
:10189000FB0678F340E060E083E799E0D6CFEF9273
:1018A0000F9389D9462F572FBC0180910501909144
:1018B0000601A0910701B091080184179507A607BA
:1018C000B70720F0809162008823C1F04C505E4F32
:1018D0006F4F7F4F409305015093060160930701BE
:1018E000709308018CEF90E0ECDB80930401882377
:1018F00051F04CEB50E068E088E262DD109262004B
:101900000F91EF9008954091000150910101609175
:101910000201709103018091FC009091FD00A09163
:10192000FE00B091FF00481759076A077B0721F4B2
:1019300080916200882311F32091FC003091FD001A
:101940004091FE005091FF0020930001309301016F
:10195000409302015093030185E0E82E01E068E026
:1019600088E273DD17DD65E0FBD046EC50E068E00F
:10197000885DC3CF80916300813009F4A8CE8230A6
:1019800009F48DCF08951F920F920FB60F92112474
:101990002F933F934F935F936F937F938F939F9377
:1019A000AF93BF93EF93FF9306D960932201709397
:1019B00023018093240190932501FF91EF91BF9122
:1019C000AF919F918F917F916F915F914F913F91D7
:1019D0002F910F900FBE0F901F901895B998C19836
:1019E000F894A8D880E888B989E080BDA89514BE8D
:1019F00081B5886181BD11BC80E28BBFA99A7894C2
:101A000029CEA4E0B0E0E6E0FDE030C1E7DF06B3B8
:101A1000069501700983CFD8462F572FBC018091BE
:101A20006500081741F040931E0150931F01609319
:101A300020017093210180911E0190911F01A091BE
:101A40002001B09121018A019B01081B190B2A0B6F
:101A50003B0BD901C8010333110521053105F0F015
:101A6000209164001981121709F45CC0109364007E
:101A70004093220150932301609324017093250128
:101A8000112351F08C3D9540A105B10528F48091BA
:101A90001D01811101C006DE10921D010981009314
:101AA000650068DF88D869837A838B839C83809103
:101AB000220190912301A0912401B0912501C980B8
:101AC000DA80EB80FC80C81AD90AEA0AFB0A1DED0D
:101AD000C11615E0D106E104F10408F498CF8BDDBE
:101AE000811132C081E029E8C21623E1D206E10467
:101AF000F10408F480E08295807FF89495B7977E92
:101B0000982B95BF95B7906295BF803129F485B722
:101B1000846885BF8B7F85BF7894889585B78F7DD6
:101B200085BF75CF09810111B9CF20911D01211108
:101B3000B5CF8C3D9540A105B10508F4AFCF21E0AC
:101B400020931D015EDDAACF80E031EEC31633E99C
:101B5000D3063FEFE306F30680F250DD80E1CDCF00
:101B6000002480FD060E660F11F08695D1F7802DBA
:101B700008950024552704C0080E591F880F991F87
:101B8000009729F076956795B8F37105B9F7802D20
:101B9000952F0895EE27FF27AA27BB2708C0A20F7D
:101BA000B31FE41FF51F220F331F441F551F9695C7
:101BB00087957795679598F37040A9F7009799F7FF
:101BC000BD01CF010895AA1BBB1B51E107C0AA1F8D
:101BD000BB1FA617B70710F0A61BB70B881F991FCE
:101BE0005A95A9F780959095BC01CD01089597FB72
:101BF000072E16F4009406D077FD08D0E4DF07FC2A
:101C000005D03EF4909581959F4F0895709561950C
:101C10007F4F0895A1E21A2EAA1BBB1BFD010DC028
:101C2000AA1FBB1FEE1FFF1FA217B307E407F5078C
:101C300020F0A21BB30BE40BF50B661F771F881F68
:101C4000991F1A9469F760957095809590959B01FE
:101C5000AC01BD01CF0108952F923F924F925F9248
:101C60006F927F928F929F92AF92BF92CF92DF92AC
:101C7000EF92FF920F931F93CF93DF93CDB7DEB711
:101C8000CA1BDB0B0FB6F894DEBF0FBECDBF0994A5
:101C90002A88398848885F846E847D848C849B84FC
:101CA000AA84B984C884DF80EE80FD800C811B810A
:101CB000AA81B981CE0FD11D0FB6F894DEBF0FBE39
:101CC000CDBFED010895DC0101C06D93415050403E
:101CD000E0F70895FB01DC010D900020E9F7119772
:101CE00001900D920020E1F70895FB01DC010190C5
:101CF0000D920020E1F70895FC0101900020E9F722
:101D0000809590958E0F9F1F0895FB01DC010D902B
:101D10000020E9F711974150504028F00190002031
:101D20000D92C9F708951C920895FC01615070400E
:101D300001900110D8F7809590958E0F9F1F089500
:041D4000F894FFCF45
:101D44000800010101017A797877767574737271EC
:101D5400706F6E6D6C6B6A696867666564636261F7
:101D6400393837363534333231303132333435362D
:101D74003738396162636465666768696A6B6C6D7C
:101D84006E6F707172737475767778797A002E003D
:101D940054656D703A0048756D2E3A002D204552F9
:101DA400524F522000203B3C0020202020250000E0
:00000001FF
