:1000000040C45AC459C458C457C456C455C454C42F
:1000100053C452C4EAC450C44FC44EC44DC4000CAF
:10002000102D00000000C0C0C0C0C00000000000D3
:1000300000000101010101000000000000000000BB
:100040000000000000000000000000003C3C3C00FC
:10005000000000000000000000C0FCFF3F030000A3
:10006000000000407C7F1F01000000000000F0FC49
:10007000FC0E0E0E1EFCF8F000000F1F1F38383863
:100080003C1F0F070000000008381C1CFEFEFE008D
:1000900000000000000000003F3F3F0000000000A3
:1000A000041C0E0E0E8EFEFCF800000000383C3ED4
:1000B0003F3F3B393838000000000C0ECECECEFE5C
:1000C000FCBC000000003838383839391F1F0F00D9
:1000D00000000080E0703CFEFEFE0000000C0F0FF0
:1000E0000F0E0E3F3F3F0E0E00000000FEFEFEDE34
:1000F000CECECE8E000000003939383839391F1F76
:100100000700000000F0FCFCCECECECECE8E00006C
:10011000000F1F3F3838383F1F0F0000000E0E0E33
:100120000ECEFEFE7E1E0000000020383E3F0F0176
:100130000000000000000078FCFECECECEFEFC3CAD
:100140000000001F1F3F3931393B1F1F0600000010
:10015000F8FCFE8E8E8EFEFCF8000000383939392E
:10016000393D1F1F070000000000000000000000D4
:10017000000000000000000000000000000000007F
:100180000000003C7E66667E3C000000000000002F
:1001900000000000000000000000F0F8FC1C0E0E43
:1001A0000E0E0E040000070F1F3C38383838381088
:1001B0000000000810200000000000000000000007
:1001C000000000000000000000F800000000000037
:1001D00000333000000000100C06100C0600000078
:1001E00000000000000040C07840C0784000043F9C
:1001F00004043F040400007088FC0830000000186C
:1002000020FF211E0000F008F000E018000000218F
:100210001C031E211E0000F00888700000001E2133
:1002200023241927211010160E00000000000000E2
:10023000000000000000000000E0180402000000C0
:1002400000071820400000020418E00000000040F1
:10025000201807000000404080F08040400002026B
:10026000010F01020200000000F000000000010187
:10027000011F01010100000000000000000080B02B
:1002800070000000000000000000000000000001FD
:100290000101010101010000000000000000003028
:1002A00030000000000000000000806018040060C2
:1002B00018060100000000E010080810E000000F20
:1002C000102020100F00001010F800000000002087
:1002D000203F2020000000700808088870000030CF
:1002E0002824222130000030088888483000001877
:1002F000202020110E000000C02010F80000000790
:100300000424243F240000F8088888080800001905
:10031000212020110E0000E0108888180000000F36
:10032000112020110E0000380808C838080000000D
:10033000003F000000000070880808887000001C62
:10034000222121221C0000E010080810E00000001B
:10035000312222110F00000000C0C0000000000088
:1003600000303000000000708888887000000000B5
:10037000000000000000F0F81C0C0C0C18300F1FDF
:1003800038303030180840404040404040000404BD
:100390000404040404000008102040800000002031
:1003A000100804020100007048080808F00000006E
:1003B000003036010000C030C828E810E0000718FF
:1003C000272423140B000000C038E0000000203C6C
:1003D00023020227382008F8888888700000203F10
:1003E000202020110E00C030080808083800071827
:1003F00020202010080008F808080810E000203F1E
:10040000202020100F0008F88888E8081000203FFE
:1004100020202320180008F88888E8081000203FD2
:10042000200003000000C03008080838000007184A
:100430002020221E020008F808000008F808203FCB
:10044000210101213F20000808F8080800000020D1
:10045000203F2020000000000808F8080800C080A5
:1004600080807F00000008F888C028180800203F1E
:1004700020012638200008F8080000000000203F76
:1004800020202020300008F8F800F8F80800203F6D
:10049000003F003F200008F830C00008F808203F67
:1004A000200007183F00E01008080810E0000F10B7
:1004B000202020100F0008F808080808F000203F4E
:1004C000210101010000E01008080810E0000F18E9
:1004D000242438504F0008F8888888887000203F0E
:1004E0002000030C3020007088080808380000380D
:1004F000202121221C00180808F808081800000014
:10050000203F2000000008F808000008F808001F3D
:10051000202020201F000878880000C8380800002C
:1005200007380E010000F80800F80008F800033C46
:100530000700073C0300081868808068180820300E
:100540002C03032C30200838C800C83808000000ED
:10055000203F2000000010080808C8380800203894
:10056000262120201800000000FE020202000000E8
:10057000007F40404000000C30C000000000000040
:1005800000010638C00000020202FE000000004028
:1005900040407F000000000004020202040000004E
:1005A000000000000000000000000000000080804B
:1005B0008080808080800002020400000000000033
:1005C0000000000000000000808080800000001912
:1005D000242222223F2008F8008080000000003FF3
:1005E000112020110E000000008080800000000E0D
:1005F000112020201100000000808088F800000EEB
:10060000112020103F200000808080800000001F0B
:10061000222222221300008080F08888881800207F
:10062000203F202000000000808080808000006B40
:1006300094949493600008F8008080800000203F2C
:10064000210000203F20008098980000000000203A
:10065000203F20200000000000809898000000C08B
:100660008080807F000008F8000080808000203FAC
:1006700024022D302000000808F8000000000020AF
:10068000203F202000008080808080808000203FEC
:1006900020003F20003F8080008080800000203FBD
:1006A000210000203F200000808080800000001F8B
:1006B000202020201F00808000808000000080FF1C
:1006C000A12020110E000000008080808000000E1C
:1006D000112020A0FF80808080008080800020206A
:1006E0003F212000010000008080808080000033D6
:1006F000242424241900008080E080800000000071
:10070000001F202000008080000000808000001F6B
:10071000202020103F208080800000808080000109
:100720000E300806010080800080008080800F303D
:100730000C030C300F0000808000808080000020BF
:10074000312E0E31200080808000008080808081EA
:100750008E7018060100008080808080800000215B
:10076000302C2221300000000000807C02020000BA
:100770000000003F404000000000FF0000000000BB
:100780000000FF0000000002027C8000000000402A
:10079000403F0000000000060101020204040000C6
:1007A0000000000000001720000000000000C0F062
:1007B000F8FEFFFCF0C00000000000000000000098
:1007C00000E0F8FEFFFFFFFFFFFFFFFFFFFFFEFC63
:1007D000F8F0E080000078FFFF077FFFFFFFFFFFDA
:1007E000FFFFFFFFFFFFFFFFFFFFFFFF7800030F8B
:1007F0001E3830716363E7FFFFFFFF7F7F7F3F1F7E
:100800001F0F03000A200000F0CCC2C2CCF0202051
:100810000000FFFFFFFFFFFF49490080FFFFFFFFD0
:10082000FFFF92121E7F7FFFFFFFFF7F7F1E0A20C8
:100830000000F00C02020CF020200000FF0000007D
:1008400000FF49490080FFFCFCFCFCFF92121E7F68
:100850007FFFFFFFFF7F7F1E0A200000F00C0202D7
:100860000CF020200000FF00000000FF494900803C
:10087000FF00000000FF92121E61408080808040D7
:10088000611E11241FBECFE5D2E0DEBFCDBF10E058
:10089000A0E6B0E0E2E9FBE102C005900D92A43DC4
:1008A000B107D9F721E0A4EDB0E001C01D92AF314E
:1008B000B207E1F7B3D86BC9A3CB1F93CF93DF93F4
:1008C000EC01162F45E050E06FEF70E023D987B3BD
:1008D00041E050E002C0440F551F1A95E2F7842B07
:1008E00087BB98B3242F2095922398BB80EA9CE87D
:1008F0000197F1F798B3942B98BB85E38A95F1F7AC
:1009000087B3822387BB88B3842B88BB28E503C0C9
:10091000215009F44DC086B390E084239523892BA0
:10092000B9F328E503C0215009F442C086B390E032
:1009300084239523892BB9F788E210E060E0E0E09A
:1009400077E0F0E598E302C0915049F126B330E03A
:1009500024233523232BC1F390E502C09150F9F0F5
:1009600026B330E024233523232BC1F7660F2F2F26
:10097000291B283208F06160711116C09E012E0FEC
:10098000311DD9016C93E43088F0EF5F60E077E0CF
:100990008150C1F69C81911719F08DEF01C08EEF47
:1009A000DF91CF911F9108957150F2CF160FEDCFC7
:1009B0008FEFDF91CF911F910895F8948CB58E7FC2
:1009C0008CBD8CB580688CBD1ABC12BE83E083BF21
:1009D0008CE789BD8AB582608ABD89B7806189BF8D
:1009E0008CB58F778CBD789408951F921FB61F9297
:1009F00011248F939F93AF93BF938091D4009091D4
:100A0000D500A091D600B091D7000196A11DB11DCF
:100A10008093D4009093D500A093D600B093D700D4
:100A2000BF91AF919F918F911F901FBE1F901895FE
:100A3000A4E0B0E0EDE1F5E03DC88091D4009091F4
:100A4000D500A091D600B091D700BC01CD0124966D
:100A5000E2E04CC80F931F93CF93DF93DC01FB01BF
:100A60008A015FB78C91822B8C938081822B80834B
:100A70008C91422F409584238C9380EB94E0EC0181
:100A80002197F1F73081342330833AEB3A95F1F72F
:100A9000E8013881C0E9D1E02197F1F74C91422B70
:100AA0004C934081422B40830197F1F75FBF232392
:100AB00081E009F480E0DF91CF911F910F910895BB
:100AC0000F931F93CF93DF93FC01DB011FB7722FAE
:100AD000709548E050E091E065EDD5E0C5E10EC0CD
:100AE0008C2F8A95F1F78081822B8083862F8A95BF
:100AF000F1F73FBF990F41505109D9F03FB78081BD
:100B0000822B80838C91822B8C938081872380839E
:100B1000802F892329F7862F8A95F1F78081822BF0
:100B200080838D2F8A95F1F73FBF990F415051096E
:100B300029F71FBFDF91CF911F910F910895B0E06A
:100B4000A0E0E4EAF5E0AFC7DC01FB01EA01BFB6D3
:100B5000F22EF09408E010E031E040E085E0C82E8D
:100B60009DE0D92E50EAE52E5FB78C91822B8C93B5
:100B70008081822B80838C918F218C938C2D8A9500
:100B8000F1F780818F2180838D2D8A95F1F79881EF
:100B90008E2D8A95F1F75FBF922381E009F480E002
:100BA000632F70E090E03ED7482B330F01501109BE
:100BB000D9F6BFBE842FCDB7DEB7E9E090C7C09AA3
:100BC000C29ABA9AB89A8FEF8FB98AE28DB980EF3C
:100BD0008EB908958091D80008958EB93DE09BE2CA
:100BE0002AE0832F8A95F1F79DB9B29BFECF822F21
:100BF0008A95F1F79DB9769BF4CF8DE08A95F1F750
:100C00008FB19FEF9FB9B89A0895C29AC29BFECF49
:100C10008DE08A95F1F7C0988AE08A95F1F7C2983D
:100C2000C09A779B02C081E0089583E08093D8004A
:100C300080E00895C098C29AB29BFECF8AE08A9560
:100C4000F1F7C09A8DE08A95F1F79EB1892F8072F5
:100C500095FF02C081E0089594E09093D800089534
:100C6000B0E0A0E0E5E3F6E01BC76C01D62FC62F8D
:100C70008C01BB24BA94AA24A3944C0117C0C29837
:100C8000F80180818FB980EFA8DFB8988EEFA5DFDB
:100C900080FD3FC08091D800982F9570943039F135
:100CA0008E7F8093D8008701C150A9F078018FEF23
:100CB000E81AF80A8091D800837009F7B89880EF95
:100CC0008CDFF8018083C13081F01FB88EEF85DFA3
:100CD0008701C15059F7AEDF982F81E0992399F031
:100CE000CDB7DEB7ECE0F8C62FC0BFB8EFCFF60146
:100CF000808181608083A092D80087DF882301F102
:100D0000CD2F8401D1CF80E0CDB7DEB7ECE0E4C6D3
:100D10001BC09091D800892F817090FF09C081E09D
:100D20008093D80080E0CDB7DEB7ECE0D5C60CC02C
:100D300092E09093D800CDB7DEB7ECE0CDC604C00A
:100D40009AE09093D800CCCF1F93CF93DF93EC0120
:100D5000162F81E08093D800888180FD03C083E056
:100D60008093D80052DF882319F0612FCE0178DFFD
:100D7000DF91CF911F910895B0E0A0E0E1ECF6E0A3
:100D80008EC67C016B014A01722EE8012097A1F00A
:100D900005E596DE5E0188E0A80EB11C0991272DBD
:100DA000A401B601C7018CDECA15DB05B9F7CDB7C2
:100DB000DEB7EDE090C606C00CEC82DECDB7DEB744
:100DC000EDE089C6B0E0A0E0E7EEF6E066C65C01C3
:100DD0004B013A01522E6701CFDF0EEB252DA30107
:100DE000B401C5016DDE8701075F1F4FE701252DA7
:100DF000A301B401C501A3DE8993C017D107B9F7D8
:100E0000F60120818181822B9281892B9381892B0C
:100E10009481892B9581892B9681892B9781892BA8
:100E2000E9F03196B601685F7F4F90E04CE888E0CA
:100E3000392F3227969530FD942726958150C1F79A
:100E4000E617F70711F02191F2CFF601208529135B
:100E500082E0CDB7DEB7EFE03CC605C083E0CDB79A
:100E6000DEB7EFE036C6B0E0A0E0E8E3F7E018C692
:100E7000D82FC92FD62EF72E942EB52E822EEADD2E
:100E8000813069F1282D492D5B2D6D2D7F2D8D2F02
:100E90009C2F72DF0EE4282D492D5B2D6D2D7F2DAB
:100EA0008D2F9C2F0DDE0E2D282D492D5B2D6D2DA8
:100EB0007F2D8D2F9C2F04DE0C2D282D492D5B2D91
:100EC0006D2D7F2D8D2F9C2FFBDD0A2D282D492D7B
:100ED0005B2D6D2D7F2D8D2F9C2FF2DD80E0CDB70A
:100EE000DEB7ECE0F9C5A9E0B0E0E8E7F7E0D5C58A
:100EF0005C014B013A01522E6701ACDD813009F4EF
:100F000041C0CE0101967C01252DA301B401C5018C
:100F100059DF811137C049812A8130E0322F2227E1
:100F2000240F311D37FD2BC0359527953595279515
:100F30003595279535952795F601318320834F7098
:100F400050E09A01220F331F22953295307F3227CD
:100F5000207F3227241B350B220F331F220F331F14
:100F6000240F351FA901440F551F440F551F240F8F
:100F7000351F338322832996EFE0ABC50BC0215F79
:100F80003F4FD2CFF601108211821282138229962E
:100F9000EFE09FC5B0E0A0E0EFECF7E080C5B82E31
:100FA000C92E962EA72EEA01D22E702E812E52DD4A
:100FB0008130F9F02D2DAE01692D7A2D8B2D9C2DD0
:100FC000DBDE04E42D2DAE01692D7A2D8B2D9C2DB9
:100FD00077DD88818D2121F4000038813D21E1F306
:100FE000072D182D2D2DAE01692D7A2D8B2D9C2DC1
:100FF0007ADFCDB7DEB7EDE06EC5AF92BF92CF928C
:10100000DF92EF92FF921F93CF93DF936C017B01EE
:10101000672B09F1D0E0C0E083E1A82EB12C06C017
:10102000812FCBD22196EC16FD06A9F0F601EC0F2C
:10103000FD1F1491CE01B50106D5892B89F7C9D2C0
:101040008091E000B4D280E4B8D2812FB6D221964C
:10105000EC16FD0659F7BDD2DF91CF911F91FF909D
:10106000EF90DF90CF90BF90AF900895CF92DF9236
:10107000FF920F931F93CF93DF939C01EB01F52E0B
:101080008B01C901642F7F2DF2D469019B01F80106
:101090000F5F1F4F8F599F4FDC0193968C91808378
:1010A000672B79F7D7FE06C0CF0102962DE2F80133
:1010B00020838C01D8011C92CE17DF0750F4808169
:1010C000319798819183DE0121968C93CE17DF07AB
:1010D000B0F3DF91CF911F910F91FF90DF90CF90F0
:1010E00008959C0104969093DF008093DE00F9013F
:1010F000319684918093D900319664916093DA009F
:101100002D5F3F4FF90124912093DB00982F962B00
:10111000977021E030E011F430E020E070E090E0E2
:1011200081D4959587959595879595958795280F61
:10113000391F3093DD002093DC0008950F931F9337
:10114000CF93DF93082F162FD42FC22F2ED280914A
:10115000E0002DD280E831D281E22FD280E02DD282
:10116000802F2BD2D1508D2F800F27D232D21DD27B
:101170008091E0001CD280E820D282E21ED280E082
:101180001CD2812F1AD28FEF8C0F810F16D221D251
:10119000DF91CF911F910F9108950F931F93CF93DC
:1011A0008091E00004D280E808D280E006D211D21B
:1011B0008091E000FCD180E800D280E1FED109D22C
:1011C0008091E000F4D180E8F8D180E4F6D101D23A
:1011D00024E040E860E080E0B1DF01E210E08091CF
:1011E000E000E5D180E4E9D1C0E180E0E6D1C15082
:1011F000E1F7EFD10150110991F7CF911F910F91B4
:1012000008958093E000D1D180E197E20197F1F752
:101210008091E000CCD180E8D0D18EEACED1D9D176
:101220008091E000C4D180E8C8D188EAC6D180E8C6
:10123000C4D18FE1C2D1CDD18091E000B8D180E896
:10124000BCD183EDBAD180E8B8D180E0B6D1C1D1AC
:101250008091E000ACD180E8B0D180E2AED180E8EE
:10126000ACD180E0AAD1B5D18091E000A0D180E8D6
:10127000A4D180EBA2D1ADD18091E00098D180E8DB
:101280009CD180E09AD1A5D18091E00090D180E8F6
:1012900094D180E192D19DD18091E00088D180E805
:1012A0008CD180E48AD195D18091E00080D180E812
:1012B00084D181E882D180E880D180E87ED189D153
:1012C0008091E00074D180E878D181EA76D181D133
:1012D0008091E0006CD180E870D188EC6ED179D13A
:1012E0008091E00064D180E868D186EA66D171D14E
:1012F0008091E0005CD180E860D185ED5ED180E82E
:101300005CD180E85AD165D18091E00050D180E86D
:1013100054D189ED52D180E850D181EF4ED159D1CD
:101320008091E00044D180E848D18AED46D180E840
:1013300044D182E042D14DD18091E00038D180E8A3
:101340003CD18BED3AD180E838D180E336D141D120
:101350008091E0002CD180E830D18EE22ED139D1BD
:101360008091E00024D180E828D18DE826D180E862
:1013700024D184E122D12DD110DF8091E00017D15A
:1013800080E81BD18FEA19D124C18091D90090E067
:101390000895B0E0A0E0EEECF9E086C3182F062F28
:1013A0007A01CA01D0D3C090D900D090DA00D69487
:1013B000D694D694069506950695882341F1E701C3
:1013C0009FEFE91AF90A8150E80EF11C2D2D4C2DE2
:1013D000602F812FB3DE8991E091DC00F091DD0078
:1013E000082E000C990B2091DB00821B9109BF0194
:1013F00019D34091DE005091DF00BF01840F951F8B
:10140000FCDD8091D900180FCE15DF05F9F6CDB7B8
:10141000DEB7E8E065C3A0E1B0E0E0E1FAE048C390
:10142000182F062FCA014AE050E0BE016F5F7F4FC0
:101430001DDEAE014F5F5F4F602F812FAADF6096E8
:10144000E4E052C3A0E2B0E0E7E2FAE02DC3F82EF8
:10145000D62EC42E152F1A821982FE0133968EE0E5
:10146000DF011D928A95E9F71A8E198E86E078962B
:10147000DF01982F1D929A95E9F71A8A198A3897F1
:10148000DF011D928A95E9F74AE050E0BE016F5FE7
:101490007F4FC901EBDD69EA70E0CE01019641D3CF
:1014A0004AE050E0BE01675E7F4F8C2D912FDEDD5C
:1014B00067E070E0CE0149965FD3801728F494E08E
:1014C000492F481B98133FC0402F50E0BE01675E74
:1014D0007F4FCE01019640D36FE070E0CE010196C0
:1014E0004BD39C018E1548F0AE014F5F5F4F6D2DC1
:1014F0008F2D4FDFA096E8E0F3C233270E2D003189
:1015000000F510E0A801421B530B8FE090E0821B16
:10151000930B41505109841795078CF060E270E0FD
:1015200081E090E08C0F9D1F820F931FF3D2E1E0CA
:10153000F0E0EC0FFD1FE00FF11F1082D5CFAC01E2
:10154000EDCF0FE0DECF50E06BEA70E0CE014196C8
:10155000D8D2BE01675E7F4FCE014196E2D2BE0176
:101560006F5E7F4FCE014996E7D2AECF0F931F93A8
:10157000CF93DF938C01862F642FF801D49131969D
:10158000C491C695C695C6952C2F4D2FD7DD6C2FCF
:1015900070E08D2F90E046D2BC01C80102962DDD8F
:1015A000DF91CF911F910F91089509CB089510926B
:1015B000E100880F8093E2000895E091E100E431BA
:1015C00038F4EF5FE093E100F0E0EE51FF4F8083ED
:1015D00008956091E1006F5F82EE90E0B5DB1092BC
:1015E000E100882311F080E00895F4CA0F931F935F
:1015F00080911A0100911B0110911C0120911D0185
:1016000030911E014091160150911701609118010F
:1016100070911901882351F0813091F0041715075A
:101620002607370798F51F910F910895041715079E
:1016300026073707C0F340E060E088E598E009C07E
:10164000041715072607370770F340E060E08EE2C5
:1016500098E08CDF80911B0190911C01A0911D01ED
:10166000B0911E0188519C4FAF4FBF4F8093160120
:1016700090931701A0931801B093190180911A015A
:101680008F5F80931A011F910F91089540E060E0F1
:1016900084E098E06BDF80911B0190911C01A09188
:1016A0001D01B0911E0188519C4FAF4FBF4F8093D9
:1016B000160190931701A0931801B093190110928D
:1016C0001A011F910F910895EF920F93CF93C82F96
:1016D00080911B0190911C01A0911D01B0911E01F0
:1016E0004091120150911301609114017091150104
:1016F000481759076A077B0718F0CC2309F456C02E
:1017000084529A4FAF4FBF4F8093120190931301B1
:10171000A0931401B0931501C19A63E087E091E0B2
:10172000CCD88093110181112DC0209109013091F5
:101730000A0180910E0190910F0128173907D9F500
:10174000CC2309F454C080910901282F30E0809106
:101750000A01482F50E085E0E82E01E060E084E4D3
:1017600071DE46EB50E060E08CE613DE49EB50E0C2
:1017700060E184E40EDE4091070150E060E184E422
:101780004ADE0AC04DEA50E060E084E402DE4DEA41
:1017900050E060E184E4FDDD85E0E7E0F1E0ACE00D
:1017A000B1E001900D928A95E1F7C1981FDFCF91CA
:1017B0000F91EF90089580910901282F30E08091DA
:1017C0000A01482F50E095E0E92E01E060E084E452
:1017D00039DE46EB50E060E08CE6DBDD90910701FE
:1017E00080910C019813C2CFCC23B1F2BFCF90915E
:1017F000070180910C01981779F2B8CFEF92FF9210
:101800000F931F93CF93C82F40911B0150911C0140
:1018100060911D0170911E0180910301909104015E
:10182000A0910501B091060184179507A607B70797
:1018300018F0CC2309F457C046505F4F6F4F7F4FCD
:1018400040930301509304016093050170930601D6
:10185000C19A9AEFE92E90E0F92E10E000E020E125
:1018600046E350E067E370E088E390E093DB809329
:10187000020181113EC04091FE005091FF00609135
:101880000001709101018091FA009091FB00A091FC
:10189000FC00B091FD00481759076A077B0711F457
:1018A000CC2301F12091FA003091FB004091FC0023
:1018B0005091FD002093FE003093FF004093000103
:1018C0005093010185E0E82E01E068E088E2BADD8E
:1018D0005CDD982F990F990F890F46EB50E068E077
:1018E000885D57DDC198CF911F910F91FF90EF90C8
:1018F00008954DEA50E068E088E24BDDC198F3CFEF
:10190000AF92CF92EF920F931F93B99AC1988CE345
:1019100078DC80ED97E028EC30E0F9013197F1F7C1
:101920000197D9F780E4A82EC12C94E6E92E10E0A7
:1019300000E020E146E350E067E370E088E390E0F8
:1019400092DA3BD880E888B989E080BD1F910F9179
:10195000EF90CF90AF9008956BD8462F572FBC01D2
:1019600040931B0150931C0160931D0170931E0155
:101970008091F6009091F700A091F800B091F900E5
:10198000481759076A077B0748F148575C4E6F4F65
:101990007F4F4093F6005093F7006093F8007093E8
:1019A000F9009091600081E0892780936000913078
:1019B00049F182EB91E095DBF0DB40E060E088E507
:1019C00098E0D4DD41EC50E060E084E1E2DC4AECF8
:1019D00050E060E184E1DDDC81E076DE8091600052
:1019E000882369F080E070DE85B7877E85BF85B784
:1019F000806285BF889585B78F7D85BF089580E01B
:101A0000FDDEF2CF8EE190E06CDBC7DB40E060E012
:101A100086EA97E0ABDD81E0F1DEE0CF71DF9CDFAD
:101A20009BDFFDCF0024552704C0080E591F880FE7
:101A3000991F009729F076956795B8F37105B9F766
:101A4000802D952F0895AA1BBB1B51E107C0AA1F2B
:101A5000BB1FA617B70710F0A61BB70B881F991F4F
:101A60005A95A9F780959095BC01CD01089597FBF3
:101A7000072E16F4009406D077FD08D0E4DF07FCAB
:101A800005D03EF4909581959F4F0895709561958E
:101A90007F4F08952F923F924F925F926F927F9265
:101AA0008F929F92AF92BF92CF92DF92EF92FF926E
:101AB0000F931F93CF93DF93CDB7DEB7CA1BDB0B1A
:101AC0000FB6F894DEBF0FBECDBF09942A883988BF
:101AD00048885F846E847D848C849B84AA84B984C6
:101AE000C884DF80EE80FD800C811B81AA81B981D2
:101AF000CE0FD11D0FB6F894DEBF0FBECDBFED01E6
:101B00000895FB01DC0102C001900D92415050404C
:101B1000D8F70895DC0101C06D9341505040E0F7C3
:101B20000895FB01DC010D900020E9F71197019069
:101B30000D920020E1F70895FB01DC0101900D9268
:101B40000020E1F70895FC0101900020E9F780955D
:101B500090958E0F9F1F0895FB01DC010D900020D2
:101B6000E9F711974150504028F0019000200D9264
:101B7000C9F708951C920895FC01615070400190CE
:101B80000110D8F7809590958E0F9F1F0895F894B7
:021B9000FFCF85
:101B9200017A797877767574737271706F6E6D6C85
:101BA2006B6A6968676665646362613938373635BE
:101BB2003433323130313233343536373839616289
:101BC200636465666768696A6B6C6D6E6F7071726B
:101BD200737475767778797A002E0030002D3A3A50
:101BE2003A3A3A3A3A003B3C002020202020202575
:101BF20000526F6F6D3A20202D0048756D2E3A20ED
:041C0200202D000091
:00000001FF
